:020000040800F2
:1000000000280020D954000821550008A5570008F1
:1000100089570008515700086D570008000000007C
:100020000000000000000000000000002155000852
:100030002155000800000000215500082155000846
:1000400021550008215500082155000821550008B8
:1000500021550008215500082155000821550008A8
:100060002155000821550008215500082155000898
:100070002155000821550008215500082155000888
:100080002155000821550008215500082155000878
:100090002155000821550008215500082155000868
:1000A00000000000215500082155000821550008D6
:1000B0002155000821550008215500082155000848
:1000C0002155000821550008215500082155000838
:1000D000215500082D4E0008215500082155000823
:1000E0002155000821550008215500082155000818
:1000F000690200080000000000000000000000008D
:1001000000000000000000000000000000000000EF
:1001100000000000000000000000000000000000DF
:1001200000000000000000000000000000000000CF
:1001300000000000000000005FF808F110B5054C59
:10014000237833B9044B13B10448AFF30080012383
:10015000237010BDE8040020000000008C6F000830
:10016000084B10B51BB108490848AFF30080084898
:10017000036803B910BD074B002BFBD0BDE810404E
:10018000184700BF00000000EC0400208C6F00083E
:10019000E40400200000000080B483B000AF0346F8
:1001A000FB71084997F907305B09FA7902F01F02E1
:1001B000012000FA02F241F8232000BF0C37BD46AF
:1001C00080BC704700E100E080B400AF104A104BE3
:1001D0005B6A43F0010353624FF080424FF080436B
:1001E0001B6A43F0100313624FF080424FF08043CC
:1001F0009B6943F4C04393614FF080424FF08043CA
:100200001B6843F00103136000BFBD4680BC70470C
:100210000038024080B500AF114A114B5B6A43F0D1
:10022000200353620F4A0F4B1B6843F08003136097
:100230000C4A0C4BDB6843F00103D360094B64228A
:10024000DA62084B43F67F629A622C20FFF7A4FF24
:10025000044A044B1B6843F00103136000BF80BDD8
:10026000003802400014004080B500AF0E4A0E4B2B
:100270001B6923F00103136100F02AF900F034F840
:100280000A4B1B780133DAB2084B1A70074B1B7804
:100290000A2B06D1054B00221A7000F0F9F800F085
:1002A00007F800BF80BD00BF001400400405002017
:1002B00080B500AF0B4BB3F90030002B0FD0094BCA
:1002C000B3F900309BB2013B9BB21AB2054B1A80C6
:1002D000044BB3F90030002B01D101F0B7FC00BF93
:1002E00080BD00BF0805002080B582B000AF0023AC
:1002F0007B604AE0284A7B68134493F9003013F18D
:100300007F0F3FD0254A7B68134493F90030DBB25E
:10031000013BDBB259B2214A7B6813440A461A708A
:100320001E4A7B68134493F90030002B07DD7B687D
:10033000DBB20133DBB2184601F036FD22E07B6808
:10034000DBB20133DBB2184601F056FD134A7B687D
:10035000134493F900301946114A7B68134493F90A
:1003600000305B4299420DDC0B4A7B68134493F9E1
:100370000030DBB20133DBB259B2084A7B68134468
:100380000A461A707B6801337B607B68072BB1DDFE
:1003900000BF0837BD4680BD0400002024050020B2
:1003A0000C00002080B400AF094A094B5B6A43F09F
:1003B00010035362074A074B1B6843F0080313609E
:1003C000044B43F67F629A6200BFBD4680BC704713
:1003D000003802400010004080B483B000AF786065
:1003E0000C4A7B68D3620B4A0A4B5B6943F00103FA
:1003F0005361084B1B69074B00221A61054A054BE4
:100400001B6843F00103136000BF0C37BD4680BC7E
:10041000704700BF0010004080B400AF00BF054B24
:100420001B6903F00103002BF9D000BFBD4680BC5F
:10043000704700BF0010004080B400AF074A074B70
:100440005B6943F001035361044B1B69034B0022BA
:100450001A6100BFBD4680BC704700BF001000405D
:1004600080B483B000AF0346FB71FB79642B01D9E4
:100470006423FB714FF08042FB7940F28F2101FB36
:1004800003F3936300BF0C37BD4680BC704700BFC9
:1004900080B500AF0D4BB3F90030002B08DD0B4BDE
:1004A000B3F900309BB2013B9BB21AB2074B1A80E2
:1004B000064BB3F90030002B05D1044B4FF6FF7209
:1004C0001A8001F0EDFC00BF80BD00BF14000020C9
:1004D00080B500AF144B1B78002B04D1134BB3F93C
:1004E0000030002B1DD0124B93F90030002B03DDA0
:1004F000002001F0E5FB02E0002001F007FC0C4BBE
:1005000093F90030DBB2013BDBB25AB2084B1A70F0
:10051000074B93F9003013F1050F02D1044B05226C
:100520001A7000BF80BD00BF0C0500200805002028
:100530000000002080B582B000AF78607B68002B9F
:1005400001D1012338E07B6893F83930DBB2002B0E
:1005500002D1786800F06AF97B68022283F83920BA
:100560007B681B687A681268D26822F40052DA60ED
:10057000786801F01BFA7B681B687A681268126958
:1005800022F490421A617B681B687A68126852698B
:1005900022F02A025A617B681B687A681268D26866
:1005A00042F40052DA607B68002283F83A207B68CC
:1005B000012283F83920002318460837BD4680BD44
:1005C00080B582B000AF78607B68002B01D1012339
:1005D00040E07B6893F83930DBB2002B02D17868B9
:1005E00000F024F97B68022283F839207B681B68BD
:1005F0007A681268D26822F40052DA60786801F0F2
:10060000D5F97B681B687A681268126922F49042F7
:100610001A617B681B687A681268526922F02202AC
:100620005A617B681B687A681268526942F0080256
:100630005A617B681B687A681268D26842F400527B
:10064000DA607B68002283F83A207B68012283F815
:100650003920002318460837BD4680BD80B582B0DA
:1006600000AF786039607B68002B01D1012351E035
:100670007B68DB69B3F5004F01D101234AE07B6859
:1006800093F83930DBB2002B02D1786800F0CEF855
:100690007B68022283F839207B681B687A681268BD
:1006A000D26822F40052DA60786801F07FF97B6842
:1006B0001B687A681268126922F400621A617B680A
:1006C0001B687A681268526922F02A025A617B68B4
:1006D0001B687A681268126942F480421A617B686A
:1006E0001B687A681268126922F020013A680A438E
:1006F0001A617B681B687A681268D26842F40052FB
:10070000DA607B68002283F83A207B68012283F854
:100710003920002318460837BD4680BD80B584B017
:1007200000AFF8600B467A60FB72FB68002B01D1CA
:1007300001234CE0FB6893F83930DBB2002B02D187
:10074000F86800F073F8FB68022283F83920FB6830
:100750001B68FA681268D26822F40052DA60F868FE
:1007600001F024F9FB681B68FA681268126922F428
:1007700090421A61FB681B68FA681268526922F09D
:100780002A025A61FB681B68FA681268126922F033
:100790000F01FA7A0A431A61FB681B68FA6812684B
:1007A000D26822F400617A680A43DA60FB681B6849
:1007B000FA681268D26842F40052DA60FB680022DC
:1007C00083F83A20FB68012283F839200023184679
:1007D0001037BD4680BD00BF80B582B000AF7860E5
:1007E0007B68002B01D101231BE07B68022283F888
:1007F00039207B681B687A681268D26822F400523C
:10080000DA60786800F01CF87B68002283F83A20F0
:100810007B68002283F839207B68002283F8382027
:10082000002318460837BD4680BD00BF80B483B0A2
:1008300000AF786000BF0C37BD4680BC704700BF7A
:1008400080B483B000AF786000BF0C37BD4680BC79
:10085000704700BF80B586B000AFF860B9603B60FC
:100860001346FB8000237B61FB6893F83930DBB2D1
:100870007B617B69012B03D07B69222B40F08E804A
:10088000BB68002B02D0FB88002B01D1012386E03E
:10089000FB6893F83830012B01D102237FE0FB681D
:1008A000012283F83820FB68002283F83A20FB6895
:1008B00093F83930DBB2222B04D1FB68322283F863
:1008C000392003E0FB68122283F83920FB68FA889C
:1008D0009A84FB68FA88DA843CE0FB68DB8C013B95
:1008E0009AB2FB68DA84FB689B68B3F5805F1FD11E
:1008F0003B6800228021F86800F09AFE0346002B36
:1009000001D003234BE0BB683B61FB681B683A697D
:100910001288C2F308025A60FB681B69002B03D1DE
:10092000BB680233BB6015E0BB680133BB6011E0FC
:100930003B6800228021F86800F07AFE0346002B15
:1009400001D003232BE0FB681A68BB68591CB9600F
:100950001B785360FB68DB8C002BBED13B68002208
:100960004021F86800F064FE0346002B01D0032309
:1009700015E0FB6893F83930DBB2322B04D1FB6809
:10098000222283F8392003E0FB68012283F8392012
:10099000FB68002283F83820002300E00223184679
:1009A0001837BD4680BD00BF80B586B000AFF86087
:1009B000B9603B601346FB8000237B61FB6893F8C2
:1009C0003930DBB27B617B69012B03D07B69122B51
:1009D00040F09E80BB68002B02D0FB88002B01D129
:1009E000012396E0FB6893F83830012B01D10223F4
:1009F0008FE0FB68012283F83820FB68002283F82F
:100A00003A20FB6893F83930DBB2122B04D1FB6833
:100A1000322283F8392003E0FB68222283F8392050
:100A2000FB68FA889A85FB68FA88DA8557E0FB68E4
:100A3000DB8D013B9AB2FB68DA85FB689B68B3F5F6
:100A4000805F29D13B6800222021F86800F0F0FD8A
:100A50000346002B01D003235BE0BB683B61FB68CE
:100A60001B69002B0CD1FB681B685B689BB2C3F34E
:100A700008039AB23B691A80BB680233BB602EE060
:100A8000FB681B685B689BB2DBB29AB23B691A8059
:100A9000BB680133BB6022E03B6800222021F8687C
:100AA00000F0C6FD0346002B01D0032331E0FB68B4
:100AB0001B69002B08D1BB685A1CBA60FA6812681F
:100AC0005268D2B21A700AE0BB685A1CBA60FA685F
:100AD00012685268D2B202F07F02D2B21A70FB687A
:100AE000DB8D002BA3D1FB6893F83930DBB2322BBE
:100AF00004D1FB68122283F8392003E0FB6801224D
:100B000083F83920FB68002283F83820002300E0B6
:100B1000022318461837BD4680BD00BF80B487B099
:100B200000AFF860B9601346FB8000237B61FB686F
:100B300093F83930DBB27B617B69012B02D07B6992
:100B4000222B4CD1BB68002B02D0FB88002B01D19B
:100B5000012345E0FB6893F83830012B01D10223D3
:100B60003EE0FB68012283F83820FB68BA681A620D
:100B7000FB68FA889A84FB68FA88DA84FB680022AA
:100B800083F83A20FB6893F83930DBB2222B04D18A
:100B9000FB68322283F8392003E0FB68122283F8D5
:100BA0003920FB681B68FA681268D26842F48072C8
:100BB000DA60FB681B68FA681268526942F0010249
:100BC0005A61FB68002283F83820FB681B68FA68CA
:100BD0001268D26842F08002DA60002300E002234B
:100BE00018461C37BD4680BC704700BF80B487B034
:100BF00000AFF860B9601346FB8000237B61FB689F
:100C000093F83930DBB27B617B69012B02D07B69C1
:100C1000122B4CD1BB68002B02D0FB88002B01D1DA
:100C2000012345E0FB6893F83830012B01D1022302
:100C30003EE0FB68012283F83820FB68BA689A62BC
:100C4000FB68FA889A85FB68FA88DA85FB680022D7
:100C500083F83A20FB6893F83930DBB2122B04D1C9
:100C6000FB68322283F8392003E0FB68222283F8F4
:100C70003920FB681B68FA681268D26842F48072F7
:100C8000DA60FB681B68FA681268526942F0010278
:100C90005A61FB68002283F83820FB681B68FA68F9
:100CA0001268D26842F02002DA60002300E00223DA
:100CB00018461C37BD4680BC704700BF80B586B063
:100CC00000AFF860B9601346FB8000237B61FB68CE
:100CD00093F83930DBB27B617B69012B02D07B69F1
:100CE000222B56D1BB68002B02D0FB88002B01D1F0
:100CF00001234FE0FB6893F83830012B01D1022328
:100D000048E0FB68012283F83820BA68FB681A6261
:100D1000FB68FA889A84FB68FA88DA84FB68002208
:100D200083F83A20FB6893F83930DBB2222B04D1E8
:100D3000FB68322283F8392003E0FB68122283F833
:100D40003920FB681B6B154A9A62FB681B6B144ABF
:100D5000DA62FB681B6B134A1A6307F108033B61F5
:100D6000FB68186B3B691968FB681B6804331A46FB
:100D7000FB8805F029F8FB681B68FA68126852695D
:100D800042F080025A61FB68002283F83820002379
:100D900000E0022318461837BD4680BDC91400087C
:100DA00055150008ED15000880B586B000AFF86055
:100DB000B9601346FB8000237B61FB6893F83930F0
:100DC000DBB27B617B69012B02D07B69122B53D193
:100DD000BB68002B02D0FB88002B01D101234CE023
:100DE000FB6893F83830012B01D1022345E0FB6802
:100DF000012283F83820BA68FB689A62FB68FA8897
:100E00009A85FB68002283F83A20FB6893F8393012
:100E1000DBB2122B04D1FB68322283F8392003E0C5
:100E2000FB68222283F83920FB685B6B154A9A62C3
:100E3000FB685B6B144ADA62FB685B6B134A1A63EC
:100E400007F108033B61FB68586BFB681B680433C0
:100E500019463B691A68FB8804F0B6FFFB681B68FB
:100E6000FA681268526942F040025A61FB68002237
:100E700083F83820002300E0022318461837BD46C7
:100E800080BD00BF71150008D1150008ED150008E0
:100E900080B483B000AF78607B6893F83830012B62
:100EA00001D1022343E07B68012283F838207B686C
:100EB00093F83930DBB2122B08D17B681B687A6853
:100EC0001268526922F080025A612BE07B6893F825
:100ED0003930DBB2222B08D17B681B687A68126834
:100EE000526922F040025A611CE07B6893F8393065
:100EF000DBB2322B10D17B681B687A6812685269AA
:100F000022F080025A617B681B687A681268526915
:100F100022F040025A6105E07B68002283F8382005
:100F2000012304E07B68002283F838200023184660
:100F30000C37BD4680BC704780B483B000AF78608A
:100F40007B6893F83830012B01D102234FE07B6896
:100F5000012283F838207B6893F83930DBB2122BFA
:100F600008D17B681B687A681268526942F0800277
:100F70005A6137E07B6893F83930DBB2222B0ED10F
:100F80007B681B681B687B681B685B687B681B68E9
:100F90007A681268526942F040025A6122E07B6826
:100FA00093F83930DBB2322B16D17B681B681B6893
:100FB0007B681B685B687B681B687A68126852698B
:100FC00042F080025A617B681B687A681268526935
:100FD00042F040025A6105E07B68002283F8382025
:100FE000012304E07B68002283F8382000231846A0
:100FF0000C37BD4680BC704780B582B000AF7860CA
:101000007B681B687A681268526922F080025A6114
:101010007B681B687A681268526922F040025A6144
:101020007B681B6B002B04D07B681B6B184604F09D
:1010300015FF7B685B6B002B04D07B685B6B1846ED
:1010400004F00CFF7B68012283F839200023184646
:101050000837BD4680BD00BF80B584B000AF786062
:101060000023FB600023BB607B681B681B6803F0E8
:101070000103002B14BF01230023DBB2FB607B685C
:101080001B68DB6803F48073BB60FB68002B12D025
:10109000BB68002B0FD07B681B681B687B681B68D4
:1010A0005B687B6893F83A30DBB243F00103DAB255
:1010B0007B6883F83A207B681B681B6803F0020397
:1010C000002B14BF01230023DBB2FB607B681B688D
:1010D0005B6903F00103BB60FB68002B12D0BB68A7
:1010E000002B0FD07B681B681B687B681B685B68E4
:1010F0007B6893F83A30DBB243F00403DAB27B68E2
:1011000083F83A207B681B681B6803F00403002BFC
:1011100014BF01230023DBB2FB607B681B685B69A3
:1011200003F00103BB60FB68002B12D0BB68002BEF
:101130000FD07B681B681B687B681B685B687B68DB
:1011400093F83A30DBB243F00203DAB27B6883F8FB
:101150003A207B681B681B6803F00803002B14BF50
:1011600001230023DBB2FB607B681B685B6903F033
:101170000103BB60FB68002B12D0BB68002B0FD0B3
:101180007B681B681B687B681B685B687B6893F8DF
:101190003A30DBB243F00803DAB27B6883F83A20D6
:1011A0007B681B681B6803F02003002B14BF01231E
:1011B0000023DBB2FB607B681B68DB6803F0200365
:1011C000BB60FB68002B05D0BB68002B02D07868A1
:1011D00000F058FB7B681B681B6803F08003002B42
:1011E00014BF01230023DBB2FB607B681B68DB6854
:1011F00003F08003BB60FB68002B05D0BB68002BAD
:1012000002D0786800F0AEFA7B681B681B6803F0B8
:101210004003002B14BF01230023DBB2FB607B687B
:101220001B68DB6803F04003BB60FB68002B05D044
:10123000BB68002B02D0786800F0F0FA7B6893F866
:101240003A30DBB2002B06D07B68012283F83920CC
:10125000786800F02DF800BF1037BD4680BD00BF94
:1012600080B483B000AF786000BF0C37BD4680BC4F
:10127000704700BF80B483B000AF786000BF0C3708
:10128000BD4680BC704700BF80B483B000AF7860BB
:1012900000BF0C37BD4680BC704700BF80B483B030
:1012A00000AF786000BF0C37BD4680BC704700BF00
:1012B00080B483B000AF786000BF0C37BD4680BCFF
:1012C000704700BF80B483B000AF78607B6893F84C
:1012D0003830012B01D1022318E07B68012283F80A
:1012E00038207B68022283F839207B681B687A6883
:1012F0001268D26842F00102DA607B68012283F84A
:1013000039207B68002283F83820002318460C37E8
:10131000BD4680BC704700BF80B483B000AF78602A
:101320007B6893F83830012B01D1022318E07B68E9
:10133000012283F838207B68022283F839207B68F9
:101340001B687A681268D26842F00202DA607B6831
:10135000012283F839207B68002283F8382000239B
:1013600018460C37BD4680BC704700BF80B483B0C0
:1013700000AF78607B6893F83830012B01D10223ED
:1013800018E07B68012283F838207B68022283F80A
:1013900039207B681B687A681268D26822F00202E2
:1013A000DA607B68012283F839207B68002283F8A9
:1013B0003820002318460C37BD4680BC704700BF5C
:1013C00080B485B000AF78600023FB607B6893F841
:1013D0003830012B01D1022320E07B68012283F801
:1013E00038207B68022283F839207B681B68DB6821
:1013F000FB60FB6823F00C03FB60FB6843F0080311
:10140000FB607B681B68FA68DA607B68012283F8FE
:1014100039207B68002283F83820002318461437CF
:10142000BD4680BC704700BF80B485B000AF786017
:101430000023FB607B6893F83830012B01D1022335
:1014400020E07B68012283F838207B68022283F841
:1014500039207B681B68DB68FB60FB6823F00C03AA
:10146000FB60FB6843F00403FB607B681B68FA6861
:10147000DA607B68012283F839207B68002283F8D8
:101480003820002318461437BD4680BC704700BF83
:1014900080B483B000AF78607B6893F83930DBB2FA
:1014A00018460C37BD4680BC704700BF80B483B07F
:1014B00000AF78607B6893F83A30DBB218460C379F
:1014C000BD4680BC704700BF80B584B000AF786077
:1014D0007B685B6AFB607B681B681B6803F020030A
:1014E000002B2FD1FB680022DA84FB681B68FA68A6
:1014F0001268526922F080025A6145F2F0530022CC
:101500004021F86800F094F80346002B07D0FB68F0
:10151000032283F83920F868FFF7CAFE15E0FB685C
:1015200093F83930DBB2322B04D1FB68222283F8E6
:10153000392003E0FB68012283F83920F868FFF7BF
:101540008FFE02E0F868FFF78BFE00BF1037BD4644
:1015500080BD00BF80B584B000AF78607B685B6AF7
:10156000FB60F868FFF786FE00BF1037BD4680BD00
:1015700080B584B000AF78607B685B6AFB607B6895
:101580001B681B6803F02003002B19D1FB680022A5
:10159000DA85FB681B68FA681268526922F040021B
:1015A0005A61FB6893F83930DBB2322B04D1FB6807
:1015B000122283F8392003E0FB68012283F83920E6
:1015C000F868FFF761FE00BF1037BD4680BD00BF61
:1015D00080B584B000AF78607B685B6AFB60F868B8
:1015E000FFF75CFE00BF1037BD4680BD80B584B0FC
:1015F00000AF78607B685B6AFB60FB680022DA857D
:10160000FB680022DA84FB68012283F83920FB683A
:1016100093F83A30DBB243F01003DAB2FB6883F898
:101620003A20F868FFF744FE00BF1037BD4680BD82
:1016300080B586B000AFF860B9603B601346FB71BF
:1016400000237B6104F0ACF97861FB79002B7BD13E
:1016500038E03B68B3F1FF3F34D03B68002B07D044
:1016600004F09EF902467B69D21A3B689A4229D956
:10167000FB681B68FA681268D26822F08002DA60A0
:10168000FB681B68FA681268D26822F02002DA60F0
:10169000FB681B68FA681268D26822F48072DA600C
:1016A000FB681B68FA681268526922F001025A61ED
:1016B000FB68012283F83920FB68002283F8382078
:1016C00003234AE0FB681B681A68BB681A40BB68C2
:1016D0009A42BED140E03B68B3F1FF3F34D03B6853
:1016E000002B07D004F05CF902467B69D21A3B68F4
:1016F0009A4229D9FB681B68FA681268D26822F0FE
:101700008002DA60FB681B68FA681268D26822F00F
:101710002002DA60FB681B68FA681268D26822F45B
:101720008072DA60FB681B68FA681268526922F0FE
:1017300001025A61FB68012283F83920FB6800220C
:1017400083F83820032308E0FB681B681A68BB682D
:101750001A40BB689A42BED0002318461837BD46CF
:1017600080BD00BF80B485B000AF78600023FB600F
:101770007B6893F83930DBB2FB60FB68122B02D038
:10178000FB68322B43D17B689B68B3F5805F19D12E
:101790007B681B6ABB607B681B68BA681288C2F3EF
:1017A00008025A607B681B69002B05D17B681B6AA5
:1017B0009A1C7B681A620EE07B681B6A5A1C7B6865
:1017C0001A6208E07B681A687B681B6A581C796893
:1017D00008621B7853607B68DB8C013B9AB27B68A4
:1017E000DA847B68DB8C002B0FD17B681B687A68FE
:1017F0001268D26822F08002DA607B681B687A681F
:101800001268D26842F04002DA60002300E002234E
:1018100018461437BD4680BC704700BF80B582B003
:1018200000AF78607B681B687A681268D26822F023
:101830004002DA607B6893F83930DBB2322B04D196
:101840007B68222283F8392013E07B681B687A6862
:101850001268D26822F48072DA607B681B687A684A
:101860001268526922F001025A617B68012283F8F2
:1018700039207868FFF7F4FC002318460837BD4686
:1018800080BD00BF80B584B000AF78600023FB60EE
:101890007B6893F83930DBB2FB60FB68222B02D007
:1018A000FB68322B7CD17B689B68B3F5805F23D1CA
:1018B0007B689B6ABB607B681B69002B0ED17B68D1
:1018C0001B685B689BB2C3F308039AB2BB681A80BB
:1018D0007B689B6A9A1C7B689A6229E07B681B681C
:1018E0005B689BB2DBB29AB2BB681A807B689B6A6A
:1018F0005A1C7B689A621BE07B681B69002B0AD12B
:101900007B689B6A591C7A6891627A68126852688F
:10191000D2B21A700CE07B689B6A591C7A6891629B
:101920007A6812685268D2B202F07F02D2B21A709C
:101930007B68DB8D013B9AB27B68DA857B68DB8D47
:10194000002B2BD17B681B687A681268D26822F062
:101950002002DA607B6893F83930DBB2322B04D195
:101960007B68122283F8392013E07B681B687A6851
:101970001268D26822F48072DA607B681B687A6829
:101980001268526922F001025A617B68012283F8D1
:1019900039207868FFF778FC002302E0002300E09C
:1019A000022318461037BD4680BD00BFF0B585B094
:1019B00000AF78600023FB607B681B687A68126860
:1019C000126922F440517A68D2680A431A617B682E
:1019D0009A687B681B691A437B685B691A437B685A
:1019E000DB691343FB607B681A687B681B68DB68F4
:1019F00023F4164323F00C03F9680B43D3607B6890
:101A00001B687A681268526922F440717A68926998
:101A10000A435A617B68DB69B3F5004F40F0878069
:101A20007B681B68874A934240D17B681C6803F03F
:101A300057F8024613469B0013449A001A447B68E9
:101A40005B685B00B2FBF3F37F4AA2FB03235B09F5
:101A50001D0103F045F8024613469B0013449A000B
:101A60001A447B685B685B00B2FBF3F603F038F85E
:101A7000024613469B0013449A001A447B685B6835
:101A80005B00B2FBF3F3704AA2FB03235B09642201
:101A900002FB03F3F31A1B0132336B4AA2FB03234D
:101AA0005B0903F00F032B43A360C6E07B681C684F
:101AB00002F0F0FF024613469B0013449A001A44BA
:101AC0007B685B685B00B2FBF3F35F4AA2FB032316
:101AD0005B091D0102F0DEFF024613469B00134422
:101AE0009A001A447B685B685B00B2FBF3F602F075
:101AF000D1FF024613469B0013449A001A447B68A8
:101B00005B685B00B2FBF3F34F4AA2FB03235B0964
:101B1000642202FB03F3F31A1B0132334A4AA2FB8D
:101B200003235B0903F00F032B43A36085E07B686D
:101B30001B68444A934240D17B681C6802F0D0FF86
:101B4000024613469B0013449A001A447B685B6864
:101B50009B00B2FBF3F33C4AA2FB03235B091D018C
:101B600002F0BEFF024613469B0013449A001A443B
:101B70007B685B689B00B2FBF3F602F0B1FF0246A4
:101B800013469B0013449A001A447B685B689B00D1
:101B9000B2FBF3F32C4AA2FB03235B09642202FB92
:101BA00003F3F31A1B013233274AA2FB03235B0919
:101BB00003F00F032B43A3603FE07B681C6802F037
:101BC00069FF024613469B0013449A001A447B683F
:101BD0005B689B00B2FBF3F31B4AA2FB03235B0988
:101BE0001D0102F057FF024613469B0013449A0062
:101BF0001A447B685B689B00B2FBF3F602F04AFF75
:101C0000024613469B0013449A001A447B685B68A3
:101C10009B00B2FBF3F30C4AA2FB03235B09642293
:101C200002FB03F3F31A1B013233074AA2FB03231F
:101C30005B0903F00F032B43A36000BF1437BD46BD
:101C4000F0BD00BF003801401F85EB5180B500AFEB
:101C50000B4BB3F90030002B04D0094BB3F9002033
:101C6000084B1A80074BB3F90030002B05D1064B07
:101C700001221A70042000F023F800BF80BD00BFCD
:101C80000A050020080500200E05002080B500AFE1
:101C9000084B00221A70084B00221A80074B4FF69F
:101CA000FF721A80042000F031F8012000F02EF8B5
:101CB00000BF80BD0E050020080500201400002094
:101CC00080B584B000AF0346FB710123FB6012E0D6
:101CD000FB68013B0B4AD35CFA799A4208D1FB6856
:101CE000013B094A32F81330DBB2184600F0ACF879
:101CF000FB680133FB60FB68052BE9DD00BF103793
:101D0000BD4680BD240000201800002080B584B0AE
:101D100000AF0346FB710123FB6012E0FB68013B4F
:101D20000B4AD35CFA799A4208D1FB68013B094A15
:101D300032F81330DBB2184600F09CF8FB68013330
:101D4000FB60FB68052BE9DD00BF1037BD4680BD99
:101D5000240000201800002080B582B000AF0346A8
:101D6000FB71FB79054AD35C032B03D1FB79184641
:101D700000F06AF800BF0837BD4680BD240000208F
:101D800080B582B000AF0346FB71FB79054AD35C96
:101D9000032B03D1FB79184600F06CF800BF08371D
:101DA000BD4680BD2400002080B485B000AF03464E
:101DB000FB710123FB6010E0FB68013B0B4AD35C25
:101DC000FA799A4206D10A4AFB68013B094931F87F
:101DD00013309361FB680133FB60FB68082BEBDD7C
:101DE00000BF1437BD4680BC704700BF3C000020D8
:101DF000000402402C00002080B485B000AF0346F0
:101E0000FB710123FB6011E0FB68013B0B4AD35CD3
:101E1000FA799A4207D10A4AFB68013B094931F82D
:101E200013301B049361FB680133FB60FB68082BD4
:101E3000EADD00BF1437BD4680BC70473C0000207F
:101E4000000402402C00002080B483B000AF0346A1
:101E5000FB71064AFB79013B054931F81330936168
:101E600000BF0C37BD4680BC704700BF0008024071
:101E70001800002080B483B000AF0346FB71064A0F
:101E8000FB79013B054931F813301B04936100BF16
:101E90000C37BD4680BC7047000802401800002087
:101EA00080B500AF0120FFF70BFF024B01221A7033
:101EB00000BF80BD0C05002080B500AF0120FFF7FA
:101EC00025FF024B00221A7000BF80BD0C050020C8
:101ED00080B483B000AF0346FB710B46BB71134661
:101EE0007B71FB79013B0649BA79CA54FB79013B06
:101EF00004497A79CA5400BF0C37BD4680BC70478C
:101F0000040000200C00002080B582B000AF034622
:101F1000FB71FB79013B054A8121D154FB791846BD
:101F2000FFF76AFF00BF0837BD4680BD04000020F0
:101F300080B500AF0A2004F0A3FE00BF80BD00BF43
:101F400080B582B000AF01237B60A8E07B68013BD5
:101F5000584A32F81330184604F092FE38607B6815
:101F6000013B554A32F813301A463B689A428CBFFF
:101F700001230023DAB27B68013B504931F813306A
:101F800019463B68994234BF01230023DBB213405A
:101F9000DBB219467B68013B494AD35C03F004037A
:101FA000002BD4BF01230023DBB2994259D07B68B8
:101FB000DBB21846FFF7F8FE7B68DBB25F33DBB2BB
:101FC0001846FFF77DFE3F4B1B781A467B689A4206
:101FD00062D07B68013B3A4AD35C03F00203002BDA
:101FE00006D0394B1B78002B5ED1FFF72FFE5BE04C
:101FF000354B1B78002B07D17B68013B304AD35C03
:1020000003F00103002B01D0012300E0002303F0C3
:102010000103DAB22D4B1B78002B0CBF01230023E8
:10202000DBB21340DBB2002B36D07B68DAB2254B33
:102030001A70274BB3F90030B3F1FF3F09D07B682A
:10204000013B244AD35C1A46214BB3F900309A4233
:1020500022DA7B68013B1F4AD35C1AB21C4B1A8000
:102060001AE07B68DBB21846FFF7C6FE7B68DBB27E
:102070005F33DBB21846FFF749FE7B68013B104A2D
:10208000D35C03F00203002B06D00F4B1B78002B10
:102090000CD0FFF7FBFD09E07B6801337B607B68B8
:1020A000052B7FF753AF02E000BF00E000BF083709
:1020B000BD4680BD44000020500000205C00002090
:1020C000680000200D0500200E0500200C050020F2
:1020D0001400002010050020B0B582B000AF00232E
:1020E000FB710023BB710023FB7125E00023BB7152
:1020F0001CE0FC79BD79FA7913469B0013445B0020
:102100001A44BB7913440121184600F0BFFC034672
:10211000D9B2334A23469B0023445B002344134433
:102120002B440A461A70BB790133BB71BB790A2B69
:10213000DFD9FB790133FB71FB79042BD6D900235E
:10214000FB711FE00023BB7116E0FD79BC79FB79C0
:10215000DB0003F14102BB7913440121184600F072
:1021600095FC0346D9B21F4AEB00134423440A46A8
:102170001A70BB790133BB71BB79072BE5D9FB79A9
:102180000133FB71FB79042BDCD90023FB711FE0C9
:102190000023BB7116E0FD79BC79FB79DB0003F10C
:1021A0006902BB7913440121184600F06FFC034615
:1021B000D9B20C4AEB00134423440A461A70BB7987
:1021C0000133BB71BB79072BE5D9FB790133FB7177
:1021D000FB79042BDCD900BF0837BD46B0BD00BF7A
:1021E00044050020A405002080B586B000AF424A17
:1021F000414BDB6943F00103D3613F4A3E4BDB694E
:1022000043F00203D3613C4A3B4BDB6943F00403D8
:10221000D36100237B611123BB6020237B600023FB
:10222000FB6003233B613B1D1946344802F0A8FEC6
:10223000324B4FF400129A6107237B610223BB608B
:102240000023FB604FF4C0637B6003233B613B1DB5
:1022500019462B4802F094FE00237B610223BB60E9
:102260000023FB6002237B6003233B613B1D194677
:10227000234802F085FE00237B610123BB60C0235D
:102280007B6003233B613B1D19461C4802F078FE2E
:1022900000237B610323BB600023FB6001237B6081
:1022A00003233B613B1D1946164802F069FE0023DB
:1022B0007B610123BB604FF440737B6003233B6170
:1022C0003B1D19460F4802F05BFE00237B61012392
:1022D000BB604FF480737B6003233B613B1D194659
:1022E000074802F04DFE064B4FF480729A6100BF22
:1022F0001837BD4680BD00BF0038024000040240D0
:10230000000002400008024080B582B002AF25E024
:10231000164B4FF080729A614FF4FA60FEF75CF84A
:10232000FEF77AF8114B4FF480729A6143F69820C9
:10233000FEF752F8FEF770F840F6B83300934FF40A
:102340007A730B4A0B490C4800F0DCF80346002B6B
:1023500004D00A4B01221A6000F012F9074B1B68E7
:10236000002BD5D000BFBD4680BD00BF000002409D
:10237000D00500206C6E0008706E00081805002063
:1023800080B483B000AF00237B601AE0224B1B882F
:102390001A46224B995C224A7B6813440A461A70FB
:1023A0001D4B1B8801339AB21B4B1A801A4B1B889A
:1023B000B3F5FA7F02D1184B00221A807B680133F3
:1023C0007B60154B1B88023B144AD35C0D2B14BF5A
:1023D00001230023DAB2134B1B7899B20E4B1B88F2
:1023E000994214BF01230023DBB21340DBB2002B60
:1023F000CCD1094B1B8801339AB2074B1A80084B8A
:102400001B78002B01D0012300E0002318460C3775
:10241000BD4680BC704700BF1C0500200806002098
:10242000D00500201E05002080B500AF00BFFFF7DB
:10243000A7FF0346002BFAD100BF80BD80B500AFD7
:1024400001E000F009F8FFF79BFF0346002BF8D1ED
:102450000023184680BD00BF80B582B000AF0023C6
:10246000FB710F490F4803F0D1F90346002B01D04F
:102470000123FB710A490C4803F0C8F90346002BFD
:1024800001D00223FB71094B1B88023B084A002143
:10249000D15400F00FF8FB7918460837BD4680BDCF
:1024A000D0050020746E00087C6E00081C0500201A
:1024B0000806002080B483B000AF00237B6007E0F3
:1024C0000F4A7B68134400221A707B6801337B60DB
:1024D0000B4A7B6813441B78002B14BF0123002395
:1024E000DAB27B68312BD4BF01230023DBB2134067
:1024F000DBB2002BE4D100BF0C37BD4680BC704777
:10250000D005002080B586B000AFF860B9607A6071
:102510003B60F86802F058FC0D2002F071FC24E0EA
:102520003868FDF759FF00BF144B1B6903F0010326
:10253000002BF9D0FFF724FF0346FB75FB7D002B32
:1025400004D13A6A3B68D31A3B620EE07968B868F6
:1025500003F05CF90346002B01D0012309E03A6A3D
:102560003B68D31A3B62FFF777FF3B6A002BD7DC4F
:10257000002318461837BD4680BD00BF001000403C
:1025800080B582B002AF4FF4FA730093C8231C4A9F
:102590001C491D48FFF7B6FF0346002B01D100235D
:1025A0002AE04FF4FA730093C823154A15491748D7
:1025B000FFF7A8FF0346002B01D100231CE04FF4D6
:1025C000FA730093C8230E4A0E491148FFF79AFF89
:1025D0000346002B01D100230EE04FF4FA73009361
:1025E000C823074A07490B48FFF78CFF0346002B17
:1025F00001D1002300E001231846BD4680BD00BF85
:10260000D00500206C6E0008846E0008906E0008F3
:10261000A06E0008AC6E000880B584B002AF786090
:1026200039601F4802F0D0FB386803F033F90346E5
:102630009BB25B009BB20D339BB2184602F028FCA4
:102640004FF4FA730093C823164A17491748FFF747
:1026500059FF0346002B01D100231CE0144802F06F
:10266000B3FB144802F0B0FB134802F0ADFB38682E
:1026700003F010F903465B00184600F01FF83868B5
:1026800003F008F903461946386800F0E7F81A2005
:1026900002F0B6FB012318460837BD4680BD00BFD7
:1026A000BC6E0008D0050020C86E0008CC6E000883
:1026B000D06E0008DC6E0008EC6E000880B584B0B7
:1026C00000AF78607B68002B00DA0F331B11FB73BF
:1026D000FB7B092B03D9FB7B3733FB7302E0FB7BCE
:1026E0003033FB73FB7B184602F08AFB7B68DAB25F
:1026F000FB7B1B01DBB2D31AFB73FB7B092B03D9DA
:10270000FB7B3733FB7302E0FB7B3033FB73FB7BDC
:10271000184602F075FB00BF1037BD4680BD00BFF4
:1027200080B483B000AF786000BF0C37BD4680BC7A
:10273000704700BFB0B58EB000AFF860B960134607
:10274000FB71454B07F110041D460FCD0FC40FCD93
:102750000FC42B68237032237B6372E07B6B0133E1
:10276000FA6813441B78342B44D17B6B0233FA682C
:1027700013441B78312B06D07B6B0233FA68134469
:102780001B78332B13D17B6B323BBA68D4187B6B2D
:102790000333FA6813441B78184600F0D7F8034651
:1027A00007F13802134413F8283C237046E07B6B92
:1027B0000233FA6813441B78322B06D07B6B02334A
:1027C000FA6813441B78342B38D17B6B323BBA68E0
:1027D000D4187B6B0333FA6813441B78184600F057
:1027E000B5F80346103307F13802134413F8283CB8
:1027F000237023E07B6B0133FA6813441B78302B82
:102800001CD17B6B323BBA68D4187B6B0233FA68FD
:1028100013441B78184600F099F80346DBB21B01FD
:10282000DDB27B6B0333FA6813441B78184600F063
:102830008DF80346DBB22B44DBB223707B6B043391
:102840007B63FB7932331A467B6B9A4286D800BF92
:102850003837BD46B0BD00BFF46E0008B0B598B0C3
:1028600000AF78603960354B07F134041D460FCD59
:102870000FC40FCD0FC42B682370314B07F10C042C
:102880001D460FCD0FC40FCD0FC495E80300206087
:10289000043421700023FB650023BB650023FB6526
:1028A00043E07A68FB6D13441B78402B1DD8254804
:1028B00002F08AFA0023BB6513E07A68FB6D1344CB
:1028C0001A7807F10C01BB6D0B441B789A4205D1B5
:1028D000BB6D20331846FFF7F1FE23E0BB6D0133DB
:1028E000BB65BB6D202BE8D91CE0174802F06CFAE1
:1028F0000023BB6513E07A68FB6D13441A7807F177
:102900003401BB6D0B441B789A4205D1BB6D30334B
:102910001846FFF7D3FE05E0BB6D0133BB65BB6D09
:10292000202BE8D9FB6D0133FB65FA6D3B689A42B9
:10293000B7D300BF6037BD46B0BD00BFF46E00081E
:10294000206F0008186F00081C6F000880B483B067
:1029500000AF0346FB71FB79303B092B02DCFB79AE
:10296000303B01E0FB79373B18460C37BD4680BC55
:10297000704700BF80B483B000AF786000BF0C37F1
:10298000BD4680BC704700BF80B582B000AF7860A4
:10299000064802F019FA786802F016FA044802F0C4
:1029A00013FA00BF0837BD4680BD00BF486F00085E
:1029B000506F000880B400AF044B054ADA60034B47
:1029C000044ADA6000BFBD4680BC7047003C02404C
:1029D000EFCDAB890504030280B500AF074B5B6800
:1029E00003F00103002B01D0FFF7E4FF034A034B80
:1029F0005B6843F00803536000BF80BD003C0240A9
:102A000080B400AF044A044B5B6823F008035360B2
:102A100000BFBD4680BC7047003C024080B584B01A
:102A200000AFF860B9601346FB71FFF7D5FFFB7983
:102A3000012B08D1FB6803F1006303F50023BA689A
:102A4000D2B21A7013E0FB79022B08D1FB6803F1B4
:102A5000006303F50023BA6892B21A8007E0FB68AE
:102A600003F1006303F500231A46BB68136000BF3F
:102A7000054B9B6903F00103002BF9D1FFF7C0FF61
:102A800000BF1037BD4680BD003C024080B483B01B
:102A900000AF78600B46FB70FB78012B06D17B689A
:102AA00003F1006303F500231B780FE0FB78022B92
:102AB00006D17B6803F1006303F500231B8805E062
:102AC0007B6803F1006303F500231B6818460C378D
:102AD000BD4680BC704700BF80B489B000AF264AB5
:102AE000254B1B6843F480731360234A224B9B6879
:102AF00023F00303936020491F4B1A681F4B1340B8
:102B00000B601D4B00229A604FF07F43FB61FB6915
:102B100093FAA3F33B603B68BB61BB69B3FA83F3F1
:102B20007B60154A144B5B6823F07F4323F46043BA
:102B300043F42043536010490F4B5B6823F4F85271
:102B40004FF4F8537B617B6993FAA3F3BB60BB68D6
:102B50003B613B69B3FA83F3FB60FB68DBB2184669
:102B60001023834013434B60034B0022DA6000BF05
:102B70002437BD4680BC704700380240FEFFFAEEA5
:102B800090B5ADF5697D00AF3B1D18600023C7F817
:102B90009C333B1D1B681B6803F00103002B00F0F6
:102BA0009A81B64B9B6803F00C03082B0BD0B34BF8
:102BB0009B6803F00C030C2B5DD1B04B9B6803F4B6
:102BC0008033002B57D04FF40033C7F86433D7F865
:102BD000643393FAA3F207F5E6731A6007F5E67318
:102BE0001A6807F5EA731A6007F5EA731B68B3FA07
:102BF00083F207F5E8731A6007F5E8731B68DBB228
:102C000043F02003DBB25B09DBB2012B02D19B4B0B
:102C10001B6801E0994B5B6B4FF40032C7F85C23F3
:102C2000D7F85C2392FAA2F107F5E272116007F57A
:102C3000E2721268C7F86823D7F86823B2FA82F103
:102C400007F5E472116007F5E4721268D2B242F03F
:102C50002002D2B202F01F02D34003F00103002B86
:102C600000F038813B1D1B685B68012B00F032814E
:102C7000012301F02DBA824B00221A7002F090FE5F
:102C8000C7F89C030CE002F08BFE0246D7F89C3399
:102C9000D31A41F28832934202D9032301F018BAC1
:102CA0004FF40033C7F89433D7F8943393FAA3F270
:102CB00007F5DE731A6007F5DE731B68C7F860332B
:102CC000D7F86033B3FA83F207F5E0731A6007F5BB
:102CD000E0731B68DBB243F02003DBB25B09DBB2BD
:102CE000012B02D1654B1B6801E0644B5B6B4FF419
:102CF0000032C7F88C23D7F88C2392FAA2F107F59B
:102D0000DA72116007F5DA721268C7F89823D7F8FB
:102D10009823B2FA82F107F5DC72116007F5DC72D4
:102D20001268D2B242F02002D2B202F01F02D340A7
:102D300003F00103002BA6D1514A3B1D1B685B68C1
:102D4000DBB213703B1D1B685B68002B5ED002F08A
:102D500027FEC7F89C030CE002F022FE0246D7F8DB
:102D60009C33D31A41F28832934202D9032301F0F3
:102D7000AFB94FF40033C7F88433D7F8843393FAEC
:102D8000A3F207F5D6731A6007F5D6731B68C7F868
:102D90009033D7F89033B3FA83F207F5D8731A60FB
:102DA00007F5D8731B68DBB243F02003DBB25B0985
:102DB000DBB2012B02D1314B1B6801E02F4B5B6B67
:102DC0004FF40032C7F87C23D7F87C2392FAA2F1A3
:102DD00007F5D272116007F5D2721268C7F888231E
:102DE000D7F88823B2FA82F107F5D472116007F59B
:102DF000D4721268D2B242F02002D2B202F01F02A4
:102E0000D34003F00103002BA6D064E002F0C8FD1C
:102E1000C7F89C030CE002F0C3FD0246D7F89C33D0
:102E2000D31A41F28832934202D9032301F050B9F8
:102E30004FF40033C7F87433D7F8743393FAA3F21E
:102E400007F5CE731A6007F5CE731B68C7F8803399
:102E5000D7F88033B3FA83F207F5D0731A6007F519
:102E6000D0731B68DBB243F02003DBB25B09DBB23B
:102E7000012B07D1014B1B6806E000BF0038024060
:102E800002380240C54B5B6B4FF40032C7F86C232D
:102E9000D7F86C2392FAA2F107F5CA72116007F510
:102EA000CA721268C7F87823D7F87823B2FA82F189
:102EB00007F5CC72116007F5CC721268D2B242F0FD
:102EC0002002D2B202F01F02D34003F00103002B14
:102ED000A1D100E000BF3B1D1B681B6803F002038B
:102EE000002B00F0B281AD4B9B6803F00C03042B68
:102EF0000BD0AA4B9B6803F00C030C2B7ED1A74B85
:102F00009B6803F48033002B78D10223C7F81C336D
:102F1000D7F81C3393FAA3F207F5C6731A6007F5C6
:102F2000C6731B68C7F87033D7F87033B3FA83F2EF
:102F300007F5C8731A6007F5C8731B68DBB243F066
:102F40002003DBB25B09DBB2012B02D1934B1B6880
:102F500001E0924B5B6B0222C7F81423D7F81423CD
:102F600092FAA2F107F5C272116007F5C2721268F7
:102F7000C7F82023D7F82023B2FA82F107F5C472EC
:102F8000116007F5C4721268D2B242F02002D2B2C8
:102F900002F01F02D34003F00103002B07D03B1DBA
:102FA0001B68DB68012B02D0012301F091B87B4C38
:102FB0007A4B5B6823F4F8523B1D1B681B694FF486
:102FC000F851C7F80C13D7F80C1391FAA1F007F5D4
:102FD000BE71086007F5BE710968C7F81813D7F805
:102FE0001813B1FA81F007F5C071086007F5C071D8
:102FF0000968C9B28B401343636026E13B1D1B681F
:10300000DB68002B00F0A3800123C7F85433D7F806
:10301000543393FAA3F207F5BA731A6007F5BA733B
:103020001B68C7F81033D7F81033B3FA83F207F5EB
:10303000BC731A6007F5BC731B68DBB29B0003F11D
:10304000844303F58E031A460123136002F0A8FCA3
:10305000C7F89C030AE002F0A3FC0246D7F89C33B1
:10306000D31A642B02D9032301F032B80223C7F824
:103070004C33D7F84C3393FAA3F207F5B6731A60C2
:1030800007F5B6731B68C7F85833D7F85833B3FA47
:1030900083F207F5B8731A6007F5B8731B68DBB2E3
:1030A00043F02003DBB25B09DBB2012B02D13B4BC7
:1030B0001B6801E0394B5B6B0222C7F84423D7F849
:1030C000442392FAA2F107F5B272116007F5B272C9
:1030D0001268C7F85023D7F85023B2FA82F107F5E7
:1030E000B472116007F5B4721268D2B242F02002D5
:1030F000D2B202F01F02D34003F00103002BAAD08A
:10310000264C264B5B6823F4F8523B1D1B681B6959
:103110004FF4F851C7F83C13D7F83C1391FAA1F0DB
:1031200007F5AE71086007F5AE710968C7F8481376
:10313000D7F84813B1FA81F007F5B071086007F5C8
:10314000B0710968C9B28B40134363607DE001230D
:10315000C7F83433D7F8343393FAA3F207F5AA73D8
:103160001A6007F5AA731B68C7F84033D7F84033D5
:10317000B3FA83F207F5AC731A6007F5AC731B68FA
:10318000DBB29B0003F1844303F58E031A46002350
:10319000136002F005FCC7F89C030CE00038024005
:1031A00002F0FEFB0246D7F89C33D31A642B02D9F7
:1031B000032300F08DBF0223C7F82C33D7F82C333C
:1031C00093FAA3F207F5A6731A6007F5A6731B68B6
:1031D000C7F83833D7F83833B3FA83F207F5A87352
:1031E0001A6007F5A8731B68DBB243F02003DBB25B
:1031F0005B09DBB2012B02D1C74B1B6801E0C64B58
:103200005B6B0222C7F82423D7F8242392FAA2F199
:1032100007F5A272116007F5A2721268C7F8302391
:10322000D7F83023B2FA82F107F5A472116007F5DE
:10323000A4721268D2B242F02002D2B202F01F028F
:10324000D34003F00103002BAAD13B1D1B681B6870
:1032500003F01003002B00F0B881AF49AE4B5B6860
:1032600023F460423B1D1B681B6A13434B60AA4B4F
:103270009B6803F00C03002B7AD14FF40073C7F85E
:103280000433D7F8043393FAA3F207F59E731A6058
:1032900007F59E731B68C7F82833D7F82833B3FAAD
:1032A00083F207F5A0731A6007F5A0731B68DBB201
:1032B00043F02003DBB25B09DBB2012B02D1964B5A
:1032C0001B6801E0944B5B6B4FF40072C7F8FC2263
:1032D000D7F8FC2292FAA2F107F59A72116007F56D
:1032E0009A721268C7F80823D7F80823B2FA82F155
:1032F00007F59C72116007F59C721268D2B242F019
:103300002002D2B202F01F02D34003F00103002BCF
:1033100007D03B1D1B689B69012B02D0012300F0E5
:10332000D7BE7D4C7C4B5B6823F07F423B1D1B6806
:10333000DB694FF07F41C7F8F412D7F8F41291FA25
:10334000A1F007F59671086007F596710968C7F84E
:103350000013D7F80013B1FA81F007F598710860EF
:1033600007F598710968C9B28B40134363602CE17B
:103370003B1D1B689B69002B00F0A6804FF48073F7
:10338000C7F8EC32D7F8EC3293FAA3F207F5927350
:103390001A6007F592731B68C7F8F832D7F8F8324D
:1033A000B3FA83F207F594731A6007F594731B68F8
:1033B000DBB29B0003F1844303F58E031A4601231D
:1033C000136002F0EDFAC7F89C030AE002F0E8FA95
:1033D0000246D7F89C33D31A642B02D9032300F09A
:1033E00077BE4FF40073C7F8E432D7F8E43293FAAB
:1033F000A3F207F58E731A6007F58E731B68C7F882
:10340000F032D7F8F032B3FA83F207F590731A600E
:1034100007F590731B68DBB243F02003DBB25B0956
:10342000DBB2012B02D13C4B1B6801E03A4B5B6BDA
:103430004FF40072C7F8DC22D7F8DC2292FAA2F12E
:1034400007F58A72116007F58A721268C7F8E822D8
:10345000D7F8E822B2FA82F107F58C72116007F50D
:103460008C721268D2B242F02002D2B202F01F0275
:10347000D34003F00103002BA8D0274C264B5B68F8
:1034800023F07F423B1D1B68DB694FF07F41C7F88B
:10349000D412D7F8D41291FAA1F007F5867108601A
:1034A00007F586710968C7F8E012D7F8E012B1FA9B
:1034B00081F007F58871086007F588710968C9B25D
:1034C0008B401343636080E04FF48073C7F8CC32C5
:1034D000D7F8CC3293FAA3F207F582731A6007F596
:1034E00082731B68C7F8D832D7F8D832B3FA83F2A0
:1034F00007F584731A6007F584731B68DBB29B00C1
:1035000003F1844303F58E031A460023136002F08F
:1035100047FAC7F89C030CE00038024002F040FA7A
:103520000246D7F89C33D31A642B02D9032300F048
:10353000CFBD4FF40073C7F8C432D7F8C43293FA42
:10354000A3F207F1FC031A6007F1FC031B68C7F83C
:10355000D032D7F8D032B3FA83F207F580731A600D
:1035600007F580731B68DBB243F02003DBB25B0915
:10357000DBB2012B02D1AE4B1B6801E0AC4B5B6BA5
:103580004FF40072C7F8BC22D7F8BC2292FAA2F11D
:1035900007F1F402116007F1F4021268C7F8C822BB
:1035A000D7F8C822B2FA82F107F1F802116007F1E8
:1035B000F8021268D2B242F02002D2B202F01F0228
:1035C000D34003F00103002BA8D13B1D1B681B68EF
:1035D00003F00803002B00F006813B1D1B685B69AC
:1035E000002B7BD00123C7F8B432D7F8B43293FA5A
:1035F000A3F207F1EC031A6007F1EC031B68C7F8AC
:10360000C032D7F8C032B3FA83F207F1F0031A6080
:1036100007F1F0031B68DBB29B001A46854B13448D
:103620001A460123136002F0BBF9C7F89C030AE0B5
:1036300002F0B6F90246D7F89C33D31A642B02D9AC
:10364000032300F045BD0223C7F8AC32D7F8AC32F3
:1036500093FAA3F207F1E4031A6007F1E4031B688D
:10366000C7F8B832D7F8B832B3FA83F207F1E803F3
:103670001A6007F1E8031B68DBB243F06003DBB2BA
:103680005B09DBB2012B02D1694B1B6801E0684B7F
:103690005B6B0222C7F8A422D7F8A42292FAA2F107
:1036A00007F1DC02116007F1DC021268C7F8B022F2
:1036B000D7F8B022B2FA82F107F1E002116007F107
:1036C000E0021268D2B242F06002D2B202F01F02EF
:1036D000D34003F00103002BAAD084E007F5277341
:1036E00001221A6007F527731B6893FAA3F207F10A
:1036F000D4031A6007F1D4031B68C7F8A832D7F8BF
:10370000A832B3FA83F207F1D8031A6007F1D8039D
:103710001B68DBB29B001A46464B13441A46002333
:10372000136002F03DF9C7F89C030AE002F038F993
:103730000246D7F89C33D31A642B02D9032300F036
:10374000C7BC07F5257302221A6007F525731B68AD
:1037500093FAA3F207F1CC031A6007F1CC031A68BD
:1037600007F528731A6007F528731B68B3FA83F20C
:1037700007F1D0031A6007F1D0031B68DBB243F0F6
:103780006003DBB25B09DBB2012B02D1284B1B6863
:1037900001E0274B5B6B07F523720221116007F5EF
:1037A0002372126892FAA2F107F1C402116007F1C4
:1037B000C402116807F52672116007F526721268B7
:1037C000B2FA82F107F1C802116007F1C80212686B
:1037D000D2B242F06002D2B202F01F02D34003F034
:1037E0000103002BA2D13B1D1B681B6803F00403DF
:1037F000002B00F0A1820E4A0D4B5B6A43F0805310
:1038000053620D4A0C4B1B6843F48073136002F043
:10381000C7F8C7F89C0311E002F0C2F80246D7F8D7
:103820009C33D31A642B09D9032300F051BC00BF89
:10383000003802408006474200700040AD4B1B68D4
:1038400003F48073002BE7D007F521734FF48072E7
:103850001A6007F521731B6893FAA3F207F1B4030A
:103860001A6007F1B4031A6807F520731A6007F5A8
:1038700020731B68B3FA83F207F1B8031A6007F1EB
:10388000B8031B68DBB29B001A469B4B13441A46D5
:103890000023136007F51F734FF480621A6007F569
:1038A0001F731B6893FAA3F207F1BC031A6007F1B8
:1038B000BC031A6807F524731A6007F524731B68A4
:1038C000B3FA83F207F1C0031A6007F1C0031B6863
:1038D000DBB29B001A46884B13441A460023136040
:1038E00002F05EF8C7F89C030BE002F059F80246BC
:1038F000D7F89C33D31A41F28832934201D903237B
:10390000E6E307F51D734FF400721A6007F51D73A7
:103910001B6893FAA3F207F1AC031A6007F1AC033A
:103920001A6807F522731A6007F522731B68B3FA49
:1039300083F207F1B0031A6007F1B0031B68DBB232
:1039400043F06003DBB25B09DBB2012B02D16B4BAE
:103950001B6801E0694B5B6B07F51B724FF400714C
:10396000116007F51B72126892FAA2F107F1A40226
:10397000116007F1A402116807F51E72116007F5C6
:103980001E721268B2FA82F107F1A802116007F103
:10399000A8021268D2B242F06002D2B202F01F0254
:1039A000D34003F00103002B9FD13B1D1B689B6894
:1039B000002B4CD107F519734FF480721A6007F58C
:1039C00019731B6893FAA3F207F194031A6007F1C5
:1039D00094031A6807F518731A6007F518731B68C3
:1039E000B3FA83F207F198031A6007F198031B6892
:1039F000DBB29B001A46404B13441A460023136067
:103A000007F517734FF480621A6007F517731B6888
:103A100093FAA3F207F19C031A6007F19C031A685A
:103A200007F51C731A6007F51C731B68B3FA83F261
:103A300007F1A0031A6007F1A0031B68DBB29B002B
:103A40001A462D4B13441A4600231360A4E03B1D75
:103A50001B689B68012B53D107F515734FF48062E7
:103A60001A6007F515731B6893FAA3F207F1840334
:103A70001A6007F184031A6807F514731A6007F5D2
:103A800014731B68B3FA83F207F188031A6007F115
:103A900088031B68DBB29B001A46174B13441A4677
:103AA0000023136007F513734FF480721A6007F553
:103AB00013731B6893FAA3F207F18C031A6007F1E2
:103AC0008C031A6807F51A731A6007F51A731B68D6
:103AD000B3FA83F207F190031A6007F190031B68B1
:103AE000DBB29B001A46044B13441A4601231360B1
:103AF00052E000BF0070004080064742003802409C
:103B000007F511734FF480721A6007F511731B6883
:103B100093FAA3F207F174031A6007F174031A68A9
:103B200007F510731A6007F510731B68B3FA83F278
:103B300007F178031A6007F178031B68DBB29B007A
:103B40001A46B64B13441A460023136007F50F7349
:103B50004FF480621A6007F50F731B6893FAA3F2A3
:103B600007F17C031A6007F17C031A6807F51673E6
:103B70001A6007F516731B68B3FA83F207F1800326
:103B80001A6007F180031B68DBB29B001A46A34B47
:103B900013441A46012313603B1D1B689B68012BCD
:103BA00065D101F0FDFEC7F89C030BE001F0F8FEC3
:103BB0000246D7F89C33D31A41F28832934201D996
:103BC000032385E207F50D734FF400721A6007F5C1
:103BD0000D731B6893FAA3F207F16C031A6007F1E7
:103BE0006C031A6807F512731A6007F512731B68E5
:103BF000B3FA83F207F170031A6007F170031B68D0
:103C0000DBB243F06003DBB25B09DBB2012B02D114
:103C1000834B1B6801E0824B5B6B07F50B724FF423
:103C20000071116007F50B72126892FAA2F107F1A8
:103C30006402116007F16402116807F50E721160E9
:103C400007F50E721268B2FA82F107F1680211608C
:103C500007F168021268D2B242F06002D2B202F0FA
:103C60001F02D34003F00103002B9FD064E001F05A
:103C700097FEC7F89C030BE001F092FE0246D7F8CE
:103C80009C33D31A41F28832934201D903231FE2B5
:103C900007F509734FF400721A6007F509731B6882
:103CA00093FAA3F207F15C031A6007F15C031A6848
:103CB00007F50C731A6007F50C731B68B3FA83F2EF
:103CC00007F160031A6007F160031B68DBB243F081
:103CD0006003DBB25B09DBB2012B02D1504B1B68E6
:103CE00001E04F4B5B6B07F507724FF400711160F9
:103CF00007F50772126892FAA2F107F154021160F7
:103D000007F15402116807F50A72116007F50A728B
:103D10001268B2FA82F107F15802116007F15802F5
:103D20001268D2B242F06002D2B202F01F02D34057
:103D300003F00103002B9FD13B1D1B685B6A002B26
:103D400000F0C581364B9B6803F00C030C2B00F090
:103D5000BC813B1D1B685B6A022B40F02B8107F581
:103D600005734FF080721A6007F505731B6893FAAC
:103D7000A3F207F14C031A6007F14C031A6807F528
:103D800008731A6007F508731B68B3FA83F207F12A
:103D900050031A6007F150031B68DBB29B0003F16C
:103DA000844303F58E031A460023136001F0F8FDE7
:103DB000C7F89C0309E001F0F3FD0246D7F89C33F5
:103DC000D31A642B01D9032382E107F503734FF063
:103DD00000721A6007F503731B6893FAA3F207F1E8
:103DE00044031A6007F144031A6807F506731A6062
:103DF00007F506731B68B3FA83F207F148031A60EC
:103E000007F148031B68DBB243F02003DBB25B0918
:103E1000DBB2012B06D1024B1B6805E0800647424E
:103E200000380240AD4B5B6B07F501724FF000713B
:103E3000116007F50172126892FAA2F107F13C02D3
:103E4000116007F13C02116807F50472116007F573
:103E500004721268B2FA82F107F14002116007F1B0
:103E600040021268D2B242F02002D2B202F01F0227
:103E7000D34003F00103002B9DD19848974B9B68DA
:103E800023F47D023B1D1B68996A3B1D1B68DB6A9E
:103E900019433B1D1B681B6B0B431343836007F5E2
:103EA000FE734FF080721A6007F5FE731B6893FA79
:103EB000A3F207F134031A6007F134031A6807F517
:103EC00002731A6007F502731B68B3FA83F207F1F5
:103ED00038031A6007F138031B68DBB29B0003F15B
:103EE000844303F58E031A460123136001F058FD45
:103EF000C7F89C0309E001F053FD0246D7F89C3354
:103F0000D31A642B01D90323E2E007F5FA734FF0CB
:103F100000721A6007F5FA731B6893FAA3F207F1AF
:103F20002C031A6007F12C031A6807F500731A6056
:103F300007F500731B68B3FA83F207F130031A60C8
:103F400007F130031B68DBB243F02003DBB25B09EF
:103F5000DBB2012B02D1614B1B6801E05F4B5B6B55
:103F600007F5F6724FF00071116007F5F6721268EE
:103F700092FAA2F107F12402116007F124021168FC
:103F800007F5FC72116007F5FC721268B2FA82F153
:103F900007F12802116007F128021268D2B242F03C
:103FA0002002D2B202F01F02D34003F00103002B23
:103FB000A1D08CE007F5F2734FF080721A6007F51C
:103FC000F2731B6893FAA3F207F11C031A6007F15E
:103FD0001C031A6807F5F8731A6007F5F8731B6875
:103FE000B3FA83F207F120031A6007F120031B687C
:103FF000DBB29B0003F1844303F58E031A460023D2
:10400000136001F0CDFCC7F89C0309E001F0C8FC87
:104010000246D7F89C33D31A642B01D9032357E007
:1040200007F5EE734FF000721A6007F5EE731B6828
:1040300093FAA3F207F114031A6007F114031A6844
:1040400007F5F4731A6007F5F4731B68B3FA83F28B
:1040500007F118031A6007F118031B68DBB243F07D
:104060002003DBB25B09DBB2012B02D11B4B1B68C7
:1040700001E01A4B5B6B07F5EC724FF000711160B9
:1040800007F5EC72126892FAA2F107F10C021160C6
:1040900007F10C02116807F5F072116007F5F07274
:1040A0001268B2FA82F107F11002116007F11002F2
:1040B0001268D2B242F02002D2B202F01F02D34004
:1040C00003F00103002BA1D101E0012300E0002354
:1040D000184607F56977BD4690BD00BF003802401D
:1040E00080B5C4B000AF3B1D18603B46196000238B
:1040F000C7F80C31B94B1B6803F001023B461B6843
:104100009A4280F0B4813B461B68012B05D1B34A2B
:10411000B24B1B6843F004031360B049AF4B1B68FC
:1041200023F001023B461B6813430B60AB4B1B683B
:1041300003F001023B461B689A4201D0012370E361
:104140003B1D1B681B6803F00203002B09D0A44928
:10415000A34B9B6823F0F0023B1D1B689B68134335
:104160008B603B1D1B681B6803F00103002B00F0F4
:1041700031833B1D1B685B68022B44D14FF4003335
:10418000C7F80431D7F8043193FAA3F3C7F88430A1
:10419000D7F88430C7F88C30D7F88C30B3FA83F373
:1041A000C7F88830D7F88830DBB243F02003DBB2A1
:1041B0005B09DBB2012B02D1894B1B6801E0884B04
:1041C0005B6B4FF40032C7F8FC20D7F8FC2092FA62
:1041D000A2F2FA67FA6FC7F80821D7F80821B2FAF5
:1041E00082F2C7F88020D7F88020D2B242F02002B5
:1041F000D2B202F01F02D34003F00103002B40F0C3
:10420000C58001230DE33B1D1B685B68032B3ED17A
:104210004FF00073C7F8F430D7F8F43093FAA3F3F3
:104220007B677B6FC7F80031D7F80031B3FA83F3AF
:10423000BB67BB6FDBB243F02003DBB25B09DBB2D1
:10424000012B02D1664B1B6801E0654B5B6B4FF0A5
:104250000072C7F8EC20D7F8EC2092FAA2F2FA66C6
:10426000FA6EC7F8F820D7F8F820B2FA82F23A6767
:104270003A6FD2B242F02002D2B202F01F02D34013
:1042800003F00103002B40F081800123C9E23B1DB4
:104290001B685B68012B3BD10223C7F8E430D7F8D9
:1042A000E43093FAA3F37B667B6EC7F8F030D7F85F
:1042B000F030B3FA83F3BB66BB6EDBB243F020038E
:1042C000DBB25B09DBB2012B02D1454B1B6801E07D
:1042D000434B5B6B0222C7F8DC20D7F8DC2092FA54
:1042E000A2F2FA65FA6DC7F8E820D7F8E820B2FA2A
:1042F00082F23A663A6ED2B242F02002D2B202F0B4
:104300001F02D34003F00103002B3FD1012388E2B9
:104310004FF40073C7F8D430D7F8D43093FAA3F32E
:104320007B657B6DC7F8E030D7F8E030B3FA83F3F4
:10433000BB65BB6DDBB243F02003DBB25B09DBB2D4
:10434000012B02D1264B1B6801E0254B5B6B4FF420
:104350000072C7F8CC20D7F8CC2092FAA2F2FA6407
:10436000FA6CC7F8D820D7F8D820B2FA82F23A65AA
:104370003A6DD2B242F02002D2B202F01F02D34014
:1043800003F00103002B01D101234AE21449144B2D
:104390009B6823F003023B1D1B685B6813438B6023
:1043A00001F0FEFAC7F80C013B1D1B685B68022B8D
:1043B00018D10BE001F0F4FA0246D7F80C31D31A09
:1043C00041F28832934201D903232AE2044B9B68CD
:1043D00003F00C03082BEDD1FCE100BF003C0240D0
:1043E000003802403B1D1B685B68032B13D10BE0B8
:1043F00001F0D6FA0246D7F80C31D31A41F28832CE
:10440000934201D903230CE2B74B9B6803F00C03E2
:104410000C2BEDD1DEE13B1D1B685B68012B1FD12E
:104420000BE001F0BDFA0246D7F80C31D31A41F285
:104430008832934201D90323F3E1AB4B9B6803F02D
:104440000C03042BEDD1C5E101F0AAFA0246D7F81E
:104450000C31D31A41F28832934201D90323E0E1AF
:10446000A14B9B6803F00C03002BEDD1B2E13B1D87
:104470001B681B6803F00203002B09D09A499A4B72
:104480009B6823F0F0023B1D1B689B6813438B6005
:104490003B1D1B681B6803F00103002B00F07D81AE
:1044A0003B1D1B685B68022B3ED14FF40033C7F8FD
:1044B000C430D7F8C43093FAA3F37B647B6CC7F89D
:1044C000D030D7F8D030B3FA83F3BB64BB6CDBB227
:1044D00043F02003DBB25B09DBB2012B02D1824B3C
:1044E0001B6801E0804B5B6B4FF40032C7F8BC20C7
:1044F000D7F8BC2092FAA2F2FA63FA6BC7F8C82088
:10450000D7F8C820B2FA82F23A643A6CD2B242F0DA
:104510002002D2B202F01F02D34003F00103002BAD
:1045200040F0CD8001237CE13B1D1B685B68032BC1
:104530003ED14FF00073C7F8B430D7F8B43093FAD7
:10454000A3F37B637B6BC7F8C030D7F8C030B3FAF6
:1045500083F3BB63BB6BDBB243F02003DBB25B09CD
:10456000DBB2012B02D1604B1B6801E05E4B5B6B41
:104570004FF00072C7F8AC20D7F8AC2092FAA2F244
:10458000FA62FA6AC7F8B820D7F8B820B2FA82F20D
:104590003A633A6BD2B242F02002D2B202F01F026A
:1045A000D34003F00103002B40F08980012338E160
:1045B0003B1D1B685B68012B3BD10223C7F8A4306D
:1045C000D7F8A43093FAA3F37B627B6AC7F8B030C4
:1045D000D7F8B030B3FA83F3BB62BB6ADBB243F007
:1045E0002003DBB25B09DBB2012B02D13E4B1B681F
:1045F00001E03D4B5B6B0222C7F89C20D7F89C2062
:1046000092FAA2F2FA61FA69C7F8A820D7F8A820AE
:10461000B2FA82F23A623A6AD2B242F02002D2B2DE
:1046200002F01F02D34003F00103002B47D1012306
:10463000F7E04FF40073C7F89430D7F8943093FA4A
:10464000A3F37B617B69C7F8A030D7F8A030B3FA39
:1046500083F3BB61BB69DBB243F02003DBB25B09D0
:10466000DBB2012B02D1204B1B6801E01E4B5B6BC0
:104670004FF40072C7F89020D7F8902092FAA2F178
:1046800007F10C02116007F10C021268C7F89820BC
:10469000D7F89820B2FA82F107F11002116007F101
:1046A00010021268D2B242F02002D2B202F01F020F
:1046B000D34003F00103002B01D10123B1E00A49EB
:1046C000094B9B6823F003023B1D1B685B68134387
:1046D0008B6001F065F9C7F80C013B1D1B685B6836
:1046E000022B16D10EE000BF0038024001F058F94D
:1046F0000246D7F80C31D31A41F28832934201D9DD
:1047000003238EE0494B9B6803F00C03082BEDD18B
:1047100043E03B1D1B685B68032B13D10BE001F0EA
:104720003FF90246D7F80C31D31A41F2883293424E
:1047300001D9032375E03D4B9B6803F00C030C2B60
:10474000EDD12AE03B1D1B685B68012B1FD10BE0FC
:1047500001F026F90246D7F80C31D31A41F288321B
:10476000934201D903235CE0304B9B6803F00C03B8
:10477000042BEDD111E001F013F90246D7F80C310A
:10478000D31A41F28832934201D9032349E0274BDF
:104790009B6803F00C03002BEDD13B461B68012BFB
:1047A00005D1234A224B1B6843F0040313602049C0
:1047B0001F4B1B6823F001023B461B6813430B6031
:1047C0001B4B1B6803F001023B461B689A4201D059
:1047D000012326E03B1D1B681B6803F00403002B2C
:1047E00009D01249114B9B6823F4E0623B1D1B6802
:1047F000DB6813438B603B1D1B681B6803F00803D9
:10480000002B0AD00949094B9B6823F460523B1DD9
:104810001B681B69DB0013438B600F2001F096F8C7
:104820000023184607F58877BD4680BD0038024052
:10483000003C024080B58AB000AFF860B9607A6091
:10484000124A124BDB6943F00103D3614FF48073CA
:104850007B610223BB6103233B620023FB610023D6
:104860007B6207F114031946094800F089FB0748E9
:10487000064B9B6823F0EE42B9687B680B431343F9
:10488000836000BF2837BD4680BD00BF00380240AE
:104890000000024080B485B000AF4FF08053FB6051
:1048A000FB6893FAA3F33B603B68BB60BB68B3FA59
:1048B00083F37B607B68DBB29B0003F1844303F5E9
:1048C0008E031A460123136000BF1437BD4680BC17
:1048D000704700BF80B485B000AF4FF08053FB60DD
:1048E000FB6893FAA3F33B603B68BB60BB68B3FA19
:1048F00083F37B607B68DBB29B0003F1844303F5A9
:104900008E031A460023136000BF1437BD4680BCD7
:10491000704700BF80B493B000AF0023FB63002357
:10492000BB6300237B6300237B6400233B63002382
:104930003B643D4B9B68FB63FB6B03F00C03082B54
:1049400006D00C2B07D0042B4BD1384B3B6465E0D1
:10495000374B3B6462E0FB6B03F470134FF470124F
:10496000BA62BA6A92FAA2F2BA60BA687A627A6AEB
:10497000B2FA82F2FA60FA68D2B2D3402D4AD35C1E
:10498000BB63FB6B03F440034FF440023A623A6AA4
:1049900092FAA2F23A613A69BA61BA69B2FA82F25B
:1049A0007A617A69D2B2D340234AD35C7B631E4BCF
:1049B0009B6803F48033002B08D0BA6B7B6BB2FB8F
:1049C000F3F31B4A02FB03F37B6407E0BA6B7B6BD8
:1049D000B2FBF3F3154A02FB03F37B647B6C3B648D
:1049E0001CE0114B5B6803F460434FF46042FA61D2
:1049F000FA6992FAA2F23A603A68FA62FA6AB2FA8C
:104A000082F27A607A68D2B2D3403B633B6B013367
:104A10004FF4004202FA03F33B6400BF3B6C1846BC
:104A20004C37BD4680BC7047003802400024F4007B
:104A300000127A00686F0008646F000880B584B0C7
:104A400000AFFFF767FF01460F4B9B6803F0F003D1
:104A5000F022FA60FA6892FAA2F23A603A68BA6012
:104A6000BA68B2FA82F27A607A68D2B2D340074A60
:104A7000D35C21FA03F3064A1360054B1B68184602
:104A80001037BD4680BD00BF00380240546F00089B
:104A90007000002080B584B000AFFFF7CFFF014663
:104AA0000D4B9B6803F4E0634FF4E062FA60FA6830
:104AB00092FAA2F23A603A68BA60BA68B2FA82F23E
:104AC0007A607A68D2B2D340044AD35C21FA03F305
:104AD00018461037BD4680BD00380240546F0008AC
:104AE00080B584B000AFFFF7A9FF01460D4B9B686E
:104AF00003F460534FF46052FA60FA6892FAA2F23B
:104B00003A603A68BA60BA68B2FA82F27A607A6851
:104B1000D2B2D340044AD35C21FA03F318461037CB
:104B2000BD4680BD00380240546F000880B48BB091
:104B300000AF78607B681F221A60564B1B6803F435
:104B40008023002B03D07B6805225A600CE0514B78
:104B50001B6803F48033002B03D07B6801225A606A
:104B600002E07B6800225A604A4B1B6803F0010395
:104B7000002B03D07B680122DA6002E07B68002210
:104B8000DA60444B5B6803F4F8534FF4F8523A622E
:104B90003A6A92FAA2F23A613A69BA61BA69B2FA29
:104BA00082F27A617A69D2B223FA02F27B681A61E0
:104BB000384B1B6803F48073002B03D07B68012201
:104BC0009A6102E07B6800229A61324B5B6803F0D5
:104BD0007F434FF07F42FA61FA6992FAA2F2BA601B
:104BE000BA687A627A6AB2FA82F2FA60FA68D2B283
:104BF00023FA02F27B68DA61264B5B6803F46042B9
:104C00007B681A62234B5B6B03F48063002B03D039
:104C10007B6805229A600CE01E4B5B6B03F480738B
:104C2000002B03D07B6801229A6002E07B6800229F
:104C30009A60184B5B6B03F00103002B03D07B6879
:104C400001225A6102E07B6800225A61114B1B6805
:104C500003F08073002B03D07B6802225A6202E0CB
:104C60007B6801225A620B4B9B6803F480327B689D
:104C70009A62084B9B6803F470127B68DA62054BFA
:104C80009B6803F440027B681A6300BF2C37BD4663
:104C900080BC70470038024080B483B000AF7860B9
:104CA00039607B680F221A60114B9B6803F0030286
:104CB0007B685A600E4B9B6803F0F0027B689A6039
:104CC0000B4B9B6803F4E0627B68DA60084B9B68DF
:104CD00003F46053DA087B681A61064B1B6803F023
:104CE00001023B681A6000BF0C37BD4680BC7047AC
:104CF00000380240003C024080B500AF064BDB6844
:104D000003F08003002B04D000F00AF8034B80224C
:104D10001A7000BF80BD00BF003802400E3802404C
:104D200080B400AF00BFBD4680BC704780B483B084
:104D300000AF0346FB71084997F907305B09FA7920
:104D400002F01F02012000FA02F241F8232000BF06
:104D50000C37BD4680BC704700E100E080B500AF75
:104D6000164A164B1B6A43F4804313622520FFF753
:104D7000DDFF134B134A1A60114B4FF416525A6061
:104D80000F4B00229A600E4B0022DA600C4B00227F
:104D90001A610B4B0C225A61094B00229A61084B95
:104DA0000022DA610648FBF7C5FB064A054BDB68C3
:104DB00043F02003D36000BF80BD00BF0038024035
:104DC000FC0700200038014080B584B000AF786057
:104DD0000023FB6009E0FB687A6813441B781846DF
:104DE00000F00EF8FB680133FB60FB687A6813443F
:104DF0001B78002BEFD100BF1037BD4680BD00BF30
:104E000080B483B000AF0346FB7100BF064B1B6844
:104E100003F08003002BF9D0034AFB79536000BFF5
:104E20000C37BD4680BC70470038014080B500AFEC
:104E300000F00CF8044A044B1B6823F0805323F065
:104E40002803136000BF80BD0038014080B400AF6C
:104E50000C4B1B881A460C4B5B68D9B20B4B995410
:104E6000084B1B8801339AB2064B1A80054B1B88EE
:104E7000B3F5FA7F02D1034B00221A8000BFBD4672
:104E800080BC70471E050020003801400806002045
:104E900080B584B000AF0346FB80FB88344AA2FB98
:104EA00003239B099BB2FB73FB88B3F57A7F05D381
:104EB000FB7B3033DBB21846FFF7A2FFFA88FB7B9F
:104EC0002C4901FB03F313442B4A82FB03125211BA
:104ED000DB17D31ABB73FB88632B05D9BB7B30333D
:104EE000DBB21846FFF78CFFFA88FB7B214901FBF8
:104EF00003F31A44BB7B6FF0630101FB03F313441C
:104F00001E4A82FB03129210DB17D31A7B73FB88B5
:104F1000092B05D97B7B3033DBB21846FFF770FFD6
:104F2000FB88DAB2BB7B194689001944C900CB1A49
:104F30009B00D9B2FB7B184640000344DB00DBB288
:104F40000B44DBB21344DAB27B7B19464901C91A20
:104F50008900CB1A5B00DBB213443B733B7B3033DD
:104F6000DBB21846FFF74CFF00BF1037BD4680BDCF
:104F7000D34D621018FCFFFF1F85EB516766666614
:104F800080B487B000AF786039600023FB600023F5
:104F9000BB6000233B6100237B6157E101227B69F9
:104FA00002FA03F3FB603B681A68FB681340BB60BE
:104FB000BA68FB689A4240F046813B685B68022B06
:104FC00003D03B685B68122B23D17B69DA087B68CE
:104FD000083253F822303B617B6903F007039B00E2
:104FE0000F2202FA03F3DB433A6913403B613B684B
:104FF0001A697B6903F007039B0002FA03F33A691D
:1050000013433B617B69DA087B680832396943F8EE
:1050100022107B681B683B617B695B00032202FAFC
:1050200003F3DB433A6913403B613B685B6803F081
:1050300003027B695B0002FA03F33A6913433B61A5
:105040007B683A691A603B685B68012B0BD03B6850
:105050005B68022B07D03B685B68112B03D03B6871
:105060005B68122B30D17B689B683B617B695B007E
:10507000032202FA03F3DB433A6913403B613B68C6
:10508000DA687B695B0002FA03F33A6913433B6118
:105090007B683A699A607B685B683B6101227B6947
:1050A00002FA03F3DB433A6913403B613B685B68F8
:1050B0001B0903F001027B6902FA03F33A69134307
:1050C0003B617B683A695A607B68DB683B617B695E
:1050D0005B00032202FA03F3DB433A6913403B61AE
:1050E0003B689A687B695B0002FA03F33A691343F1
:1050F0003B617B683A69DA603B685B6803F0805328
:10510000002B00F0A080564A554B1B6A43F0010368
:105110001362544A7B699B08023352F823303B6187
:105120007B6903F003039B000F2202FA03F3DB43C6
:105130003A6913403B617B684B4A93421FD07B68BE
:105140004A4A934219D07B68494A934213D07B68FC
:10515000484A93420DD07B68474A934207D07B6808
:10516000464A934201D107230AE0082308E00423BA
:1051700006E0032304E0022302E0012300E0002311
:105180007A6902F00302920093403A6913433B614B
:1051900034497B699B0802333A6941F82320384B34
:1051A0001B683B61BB68DB433A6913403B613B686A
:1051B0005B6803F48033002B03D03A69BB68134368
:1051C0003B612F4A3B6913602D4B5B683B61BB68B9
:1051D000DB433A6913403B613B685B6803F400338F
:1051E000002B03D03A69BB6813433B61244A3B69F7
:1051F0005360234B9B683B61BB68DB433A691340B8
:105200003B613B685B6803F48013002B03D03A6971
:10521000BB6813433B611A4A3B699360184BDB68D8
:105220003B61BB68DB433A6913403B613B685B68A9
:1052300003F40013002B03D03A69BB6813433B61AE
:105240000F4A3B69D3607B6901337B617B690F2B1C
:105250007FF6A4AE00BF1C37BD4680BC704700BFC0
:1052600000380240000001400000024000040240FB
:1052700000080240000C02400010024000140240EE
:105280000004014080B487B000AF7860396000232B
:105290003B610023FB600023BB6000237B6182E055
:1052A00001227B6902FA03F33B613A683B691340D0
:1052B000FB60FA683B699A4272D17B681A687B6925
:1052C0005B00032101FA03F3DB431A407B681A6099
:1052D0007B69DA087B69D9087B68083153F82110AB
:1052E0007B6903F007039B000F2000FA03F3DB4305
:1052F00019407B68083243F822107B689A687B6902
:105300005B00032101FA03F3DB431A407B689A60D8
:105310007B685A6801217B6901FA03F3DB431A4079
:105320007B685A607B68DA687B695B00032101FA5D
:1053300003F3DB431A407B68DA607B6903F0030305
:105340009B000F2202FA03F3BB601B487B699B089A
:1053500019497A699208023251F82210BA68D24388
:105360000A40023340F823201449144B1A68FB68A2
:10537000DB4313400B601149104B5A68FB68DB4359
:1053800013404B600D490D4B9A68FB68DB4313409B
:105390008B600A49094BDA68FB68DB431340CB603A
:1053A0007B6901337B617B690F2B7FF679AF00BF8F
:1053B0001C37BD4680BC704700000140000401401E
:1053C00080B485B000AF78600B467B807B681A693B
:1053D0007B881340002B02D00123FB7301E00023E4
:1053E000FB73FB7B18461437BD4680BC704700BF7B
:1053F00080B483B000AF78600B467B8013467B702F
:105400007B78002B03D07A887B689A6103E07B88E5
:105410001A047B689A6100BF0C37BD4680BC704798
:1054200080B483B000AF78600B467B807B685A699C
:105430007B885A407B685A6100BF0C37BD4680BCF0
:10544000704700BF80B485B000AF78600B467B80AA
:105450004FF48033FB607A88FB681343FB60FA6883
:105460007B68DA617A887B68DA61FA687B68DA617E
:105470007B68DB69FB607B68DB6903F48033002BAE
:1054800001D0002300E0012318461437BD4680BC3C
:10549000704700BF80B582B000AF0346FB80084B69
:1054A0005A69FB881340002B06D0054AFB885361DC
:1054B000FB88184600F006F800BF0837BD4680BDDF
:1054C0000004014080B483B000AF0346FB8000BFFE
:1054D0000C37BD4680BC7047002103E00B4B5B5886
:1054E000435004310A480B4B42189A42F6D30A4AF9
:1054F00002E0002342F8043B084B9A42F9D300F043
:1055000011F801F009FC00F0EDF870478C6F00080D
:1055100000000020E8040020E804002074080020B7
:10552000FEE7000080B400AF154A154B1B6843F43A
:10553000807313601249124B9A68124B13408B60B0
:105540000F4A0F4B1B6823F0885323F0011313609D
:105550000B4A0B4B1B6823F480231360084A084B4B
:105560009B6823F47D039360054B0022DA60064BB1
:105570004FF000629A6000BFBD4680BC704700BF1C
:10558000003802400CC0FF8800ED00E080B487B016
:1055900000AF00237B6100233B610023FB600023FD
:1055A000BB6000237B60494B9B6803F00C037B616D
:1055B0007B690C2B64D801A252F823F0F155000846
:1055C00081560008815600088156000811560008CF
:1055D00081560008815600088156000819560008B7
:1055E000815600088156000881560008215600089F
:1055F000364B5B6803F460435B0B7B607B68013375
:105600004FF4004202FA03F31A46314B1A6047E0A6
:105610002F4B304A1A6043E02D4B2F4A1A603FE06F
:105620002A4B9B6803F470133B61284B9B6803F47F
:105630004003FB603B699B0C284AD35CDBB23B61B7
:10564000FB689B0D0133FB60204B9B6803F48033A8
:10565000BB60BB68002B09D13B691E4A02FB03F209
:10566000FB68B2FBF3F31A4A136019E03B691A4A6C
:1056700002FB03F2FB68B2FBF3F3154A13600FE081
:10568000124B5B6803F460435B0B7B607B68013308
:105690004FF4004202FA03F31A460D4B1A6000BFA2
:1056A0000A4B9B6803F0F0031B090D4AD35CDBB285
:1056B0007B61074B1A687B6922FA03F3044A136083
:1056C00000BF1C37BD4680BC704700BF0038024099
:1056D000700000200024F40000127A007400002002
:1056E0008000002080B500AF154A154B5B6A43F47B
:1056F00000335362124A124B5B6A43F480335362A5
:105700000F4A0F4B5B6A43F48023536201F0D8FACF
:10571000FCF76AFDFAF746FEFFF720FB094B1B6812
:10572000002B02D1FCF7F0FD03E007490748FCF726
:1057300073FF42F21070FAF74FFEFAF76DFEEDE7D5
:1057400000ED00E018050020746F0008A0000020A4
:1057500080B483B000AF09237B607B6801337B603A
:1057600000BF0C37BD4680BC704700BF80B483B01B
:1057700000AF09237B607B6801337B6000BF0C377F
:10578000BD4680BC704700BF80B483B000AF092322
:105790007B607B6801337B6000BF0C37BD4680BCFB
:1057A000704700BF80B400AF1EF0040F0CBFEFF3D2
:1057B0000880EFF309808169004A1047C957000843
:1057C00000BFBD4680BC704780B48BB000AF78602E
:1057D0007B681B687B627B685B683B627B689B685D
:1057E000FB617B68DB68BB617B681B697B617B68F5
:1057F0005B693B617B689B69FB607B68DB69BB60C5
:1058000000BF2C37BD4680BC704700BF80B588B054
:1058100000AF786039600023FB61786800F03AF8E7
:1058200003463B61386800F035F80346FB6000230F
:10583000BB6124E000237B611DE07B697A6813442F
:105840001A78FB6939680B441B789A4208D1BB6906
:105850000133BB613B69BA699A4206D1012315E065
:105860000023BB613B6901337B61FB690133FB6151
:105870007B6901337B617A693B699A42DDDDFA68B5
:105880003B69D21AFB699A42D4DA002318462037C2
:10589000BD4680BD80B485B000AF78600023FB605A
:1058A00002E0FB680133FB607A68FB6813441B78F5
:1058B000002BF6D1FB6818461437BD4680BC7047F4
:1058C00080B500AF0B4A0B4B1B6843F00403136019
:1058D000084A084B1B6843F002031360032001F0E1
:1058E000BDF80F2000F032F801F090F900231846BF
:1058F00080BD00BF003C024080B500AF0C4B4FF0B4
:10590000FF329A610A4B00229A61094B4FF0FF3235
:105910005A61074B00225A61054B4FF0FF321A6162
:10592000034B00221A6101F077F90023184680BD6D
:105930000038024080B400AF00BFBD4680BC704755
:1059400080B400AF00BFBD4680BC704780B582B058
:1059500000AF7860FFF772F80246094BA3FB022301
:105960009B09184601F0C4F8002279684FF0FF3017
:1059700001F080F8002318460837BD4680BD00BFFF
:10598000D34D621080B400AF044B1B680133034A4F
:10599000136000BFBD4680BC704700BF20050020DB
:1059A00080B400AF024B1B681846BD4680BC7047F0
:1059B0002005002080B584B000AF78600023FB6034
:1059C000FFF7EEFFF86000BFFFF7EAFF0246FB6853
:1059D000D21A7B689A42F7D300BF1037BD4680BD0C
:1059E00080B400AF044A044B1B6823F00203136029
:1059F00000BFBD4680BC704710E000E080B400AF3F
:105A0000044A044B1B6843F00203136000BFBD4609
:105A100080BC704710E000E080B400AF4FF08073AE
:105A20001846BD4680BC704780B400AF034B1B686E
:105A30001B0C1846BD4680BC704700BF002004E028
:105A400080B400AF034B1B68C3F30B031846BD467D
:105A500080BC7047002004E080B400AF044A044BCF
:105A60005B6843F00103536000BFBD4680BC7047D4
:105A7000002004E080B400AF044A044B5B6823F0CC
:105A80000103536000BFBD4680BC7047002004E0A6
:105A900080B400AF044A044B5B6843F002035360D8
:105AA00000BFBD4680BC7047002004E080B400AF5A
:105AB000044A044B5B6823F00203536000BFBD46F9
:105AC00080BC7047002004E080B400AF044A044B5F
:105AD0005B6843F00403536000BFBD4680BC704761
